:02000000FD2BD6
:10076C008316850183128512A3010630A200133073
:10077C00A100AD30A000A00BC12BA10BC12BA20B73
:10078C00C12BC82B0130DF005F088312A307283070
:10079C002302031CD22BD32BBB2B8516A4010630B2
:1007AC00A2001330A100AD30A000A00BDB2BA10BDD
:1007BC00DB2BA20BDB2BE22B0130DF005F0883125B
:1007CC00A40724080319EB2BEC2BD52B8512033033
:1007DC008312A2008A30A1005530A000A00BF42B8C
:1007EC00A10BF42BA20BF42BFB2BED2B002883017C
:0207FC00B62B1A
:02400E009431EB
:00000001FF
